{
  "_format": "hh-sol-artifact-1",
  "contractName": "Create",
  "sourceName": "contracts/VotingContracts.sol",
  "abi": [
    {
      "inputs": [],
      "stateMutability": "nonpayable",
      "type": "constructor"
    },
    {
      "inputs": [],
      "name": "_candidateId",
      "outputs": [
        {
          "internalType": "uint256",
          "name": "_value",
          "type": "uint256"
        }
      ],
      "stateMutability": "view",
      "type": "function"
    },
    {
      "inputs": [],
      "name": "_voterId",
      "outputs": [
        {
          "internalType": "uint256",
          "name": "_value",
          "type": "uint256"
        }
      ],
      "stateMutability": "view",
      "type": "function"
    },
    {
      "inputs": [
        {
          "internalType": "uint256",
          "name": "",
          "type": "uint256"
        }
      ],
      "name": "candidateAddress",
      "outputs": [
        {
          "internalType": "address",
          "name": "",
          "type": "address"
        }
      ],
      "stateMutability": "view",
      "type": "function"
    },
    {
      "inputs": [
        {
          "internalType": "address",
          "name": "",
          "type": "address"
        }
      ],
      "name": "candidates",
      "outputs": [
        {
          "internalType": "uint256",
          "name": "id",
          "type": "uint256"
        },
        {
          "internalType": "address",
          "name": "_address",
          "type": "address"
        },
        {
          "internalType": "string",
          "name": "name",
          "type": "string"
        },
        {
          "internalType": "string",
          "name": "image",
          "type": "string"
        },
        {
          "internalType": "string",
          "name": "age",
          "type": "string"
        },
        {
          "internalType": "string",
          "name": "ipfs",
          "type": "string"
        },
        {
          "internalType": "uint256",
          "name": "deadline",
          "type": "uint256"
        },
        {
          "internalType": "uint256",
          "name": "voteCount",
          "type": "uint256"
        }
      ],
      "stateMutability": "view",
      "type": "function"
    },
    {
      "inputs": [],
      "name": "getCandidate",
      "outputs": [
        {
          "internalType": "address[]",
          "name": "",
          "type": "address[]"
        }
      ],
      "stateMutability": "view",
      "type": "function"
    },
    {
      "inputs": [
        {
          "internalType": "address",
          "name": "_address",
          "type": "address"
        }
      ],
      "name": "getCandidateData",
      "outputs": [
        {
          "internalType": "uint256",
          "name": "",
          "type": "uint256"
        },
        {
          "internalType": "address",
          "name": "",
          "type": "address"
        },
        {
          "internalType": "string",
          "name": "",
          "type": "string"
        },
        {
          "internalType": "string",
          "name": "",
          "type": "string"
        },
        {
          "internalType": "string",
          "name": "",
          "type": "string"
        },
        {
          "internalType": "uint256",
          "name": "",
          "type": "uint256"
        },
        {
          "internalType": "uint256",
          "name": "",
          "type": "uint256"
        }
      ],
      "stateMutability": "view",
      "type": "function"
    },
    {
      "inputs": [],
      "name": "getCandidateLength",
      "outputs": [
        {
          "internalType": "uint256",
          "name": "",
          "type": "uint256"
        }
      ],
      "stateMutability": "view",
      "type": "function"
    },
    {
      "inputs": [],
      "name": "getVotedVoterList",
      "outputs": [
        {
          "internalType": "address[]",
          "name": "",
          "type": "address[]"
        }
      ],
      "stateMutability": "view",
      "type": "function"
    },
    {
      "inputs": [],
      "name": "getVoterAddress",
      "outputs": [
        {
          "internalType": "address[]",
          "name": "",
          "type": "address[]"
        },
        {
          "internalType": "uint256",
          "name": "",
          "type": "uint256"
        }
      ],
      "stateMutability": "view",
      "type": "function"
    },
    {
      "inputs": [
        {
          "internalType": "address",
          "name": "_address",
          "type": "address"
        }
      ],
      "name": "getVoterData",
      "outputs": [
        {
          "internalType": "uint256",
          "name": "",
          "type": "uint256"
        },
        {
          "internalType": "address",
          "name": "",
          "type": "address"
        },
        {
          "internalType": "string",
          "name": "",
          "type": "string"
        },
        {
          "internalType": "string",
          "name": "",
          "type": "string"
        },
        {
          "internalType": "string",
          "name": "",
          "type": "string"
        },
        {
          "internalType": "uint256",
          "name": "",
          "type": "uint256"
        },
        {
          "internalType": "bool",
          "name": "",
          "type": "bool"
        }
      ],
      "stateMutability": "view",
      "type": "function"
    },
    {
      "inputs": [],
      "name": "resetWinner",
      "outputs": [],
      "stateMutability": "nonpayable",
      "type": "function"
    },
    {
      "inputs": [
        {
          "internalType": "address",
          "name": "_address",
          "type": "address"
        },
        {
          "internalType": "uint256",
          "name": "_deadline",
          "type": "uint256"
        },
        {
          "internalType": "string",
          "name": "_name",
          "type": "string"
        },
        {
          "internalType": "string",
          "name": "_age",
          "type": "string"
        },
        {
          "internalType": "string",
          "name": "_image",
          "type": "string"
        },
        {
          "internalType": "string",
          "name": "_ipfs",
          "type": "string"
        }
      ],
      "name": "setCandidate",
      "outputs": [],
      "stateMutability": "nonpayable",
      "type": "function"
    },
    {
      "inputs": [
        {
          "internalType": "address",
          "name": "_candidateAddress",
          "type": "address"
        },
        {
          "internalType": "uint256",
          "name": "_candidateVoterId",
          "type": "uint256"
        }
      ],
      "name": "vote",
      "outputs": [],
      "stateMutability": "nonpayable",
      "type": "function"
    },
    {
      "inputs": [
        {
          "internalType": "uint256",
          "name": "",
          "type": "uint256"
        }
      ],
      "name": "votedVoters",
      "outputs": [
        {
          "internalType": "address",
          "name": "",
          "type": "address"
        }
      ],
      "stateMutability": "view",
      "type": "function"
    },
    {
      "inputs": [
        {
          "internalType": "uint256",
          "name": "",
          "type": "uint256"
        }
      ],
      "name": "voterAddress",
      "outputs": [
        {
          "internalType": "address",
          "name": "",
          "type": "address"
        }
      ],
      "stateMutability": "view",
      "type": "function"
    },
    {
      "inputs": [
        {
          "internalType": "address",
          "name": "_address",
          "type": "address"
        },
        {
          "internalType": "string",
          "name": "_name",
          "type": "string"
        },
        {
          "internalType": "string",
          "name": "_image",
          "type": "string"
        },
        {
          "internalType": "string",
          "name": "_ipfs",
          "type": "string"
        }
      ],
      "name": "voterRight",
      "outputs": [],
      "stateMutability": "nonpayable",
      "type": "function"
    },
    {
      "inputs": [
        {
          "internalType": "address",
          "name": "",
          "type": "address"
        }
      ],
      "name": "voters",
      "outputs": [
        {
          "internalType": "uint256",
          "name": "voterId",
          "type": "uint256"
        },
        {
          "internalType": "address",
          "name": "voter_Address",
          "type": "address"
        },
        {
          "internalType": "string",
          "name": "voterName",
          "type": "string"
        },
        {
          "internalType": "string",
          "name": "voterImage",
          "type": "string"
        },
        {
          "internalType": "string",
          "name": "voterIPfs",
          "type": "string"
        },
        {
          "internalType": "uint256",
          "name": "voter_vote",
          "type": "uint256"
        },
        {
          "internalType": "uint256",
          "name": "voter_allowed",
          "type": "uint256"
        },
        {
          "internalType": "bool",
          "name": "voter_voted",
          "type": "bool"
        }
      ],
      "stateMutability": "view",
      "type": "function"
    },
    {
      "inputs": [],
      "name": "votingOrganizer",
      "outputs": [
        {
          "internalType": "address",
          "name": "",
          "type": "address"
        }
      ],
      "stateMutability": "view",
      "type": "function"
    },
    {
      "inputs": [],
      "name": "winnerCandidate",
      "outputs": [
        {
          "internalType": "address",
          "name": "",
          "type": "address"
        }
      ],
      "stateMutability": "view",
      "type": "function"
    }
  ],
  "bytecode": "0x608060405234801561001057600080fd5b5033600260006101000a81548173ffffffffffffffffffffffffffffffffffffffff021916908373ffffffffffffffffffffffffffffffffffffffff1602179055506000600360006101000a81548173ffffffffffffffffffffffffffffffffffffffff021916908373ffffffffffffffffffffffffffffffffffffffff160217905550612a0f806100a36000396000f3fe608060405234801561001057600080fd5b50600436106101215760003560e01c8063880e4948116100ad578063a15148d111610071578063a15148d114610330578063a3ec138d1461034e578063a738896714610385578063b9be3152146103a3578063f7522a83146103c157610121565b8063880e49481461026a578063882384d3146102865780638ab66a90146102a55780638e945685146102dc5780638fb4cd80146102fa57610121565b80635d55f2de116100f45780635d55f2de146101c65780635f74bbde146101f657806370218b85146102125780637831ffb3146102305780637d882e9b1461026057610121565b80630361419e146101265780632a466ac7146101425780633a88251a146101785780635cc48aa7146101a8575b600080fd5b610140600480360381019061013b9190611c72565b6103df565b005b61015c60048036038101906101579190611d2d565b6105fa565b60405161016f9796959493929190611e01565b60405180910390f35b610192600480360381019061018d9190611eb1565b6109b4565b60405161019f9190611ede565b60405180910390f35b6101b06109f3565b6040516101bd9190611ede565b60405180910390f35b6101e060048036038101906101db9190611eb1565b610a19565b6040516101ed9190611ede565b60405180910390f35b610210600480360381019061020b9190611ef9565b610a58565b005b61021a610ce0565b6040516102279190611ff7565b60405180910390f35b61024a60048036038101906102459190611eb1565b610d6e565b6040516102579190611ede565b60405180910390f35b610268610dad565b005b610284600480360381019061027f9190612019565b610e81565b005b61028e6110c6565b60405161029c929190612116565b60405180910390f35b6102bf60048036038101906102ba9190611d2d565b611161565b6040516102d3989796959493929190612146565b60405180910390f35b6102e46113e9565b6040516102f19190611ff7565b60405180910390f35b610314600480360381019061030f9190611d2d565b611477565b60405161032797969594939291906121fb565b60405180910390f35b61033861183e565b6040516103459190611ede565b60405180910390f35b61036860048036038101906103639190611d2d565b611864565b60405161037c98979695949392919061227f565b60405180910390f35b61038d611a71565b60405161039a9190612312565b60405180910390f35b6103ab611a7d565b6040516103b89190612312565b60405180910390f35b6103c9611a89565b6040516103d69190612312565b60405180910390f35b6000600860008673ffffffffffffffffffffffffffffffffffffffff1673ffffffffffffffffffffffffffffffffffffffff1681526020019081526020016000209050600260009054906101000a900473ffffffffffffffffffffffffffffffffffffffff1673ffffffffffffffffffffffffffffffffffffffff163373ffffffffffffffffffffffffffffffffffffffff16146104b2576040517f08c379a00000000000000000000000000000000000000000000000000000000081526004016104a99061239f565b60405180910390fd5b60008160060154146104c357600080fd5b6104cd6001611a96565b60006104d96001611aac565b9050808260000181905550858260010160006101000a81548173ffffffffffffffffffffffffffffffffffffffff021916908373ffffffffffffffffffffffffffffffffffffffff1602179055508482600201908161053891906125cb565b508382600301908161054a91906125cb565b508282600401908161055c91906125cb565b50600182600601819055506103e8826005018190555060008260070160006101000a81548160ff0219169083151502179055506006869080600181540180825580915050600190039060005260206000200160009091909190916101000a81548173ffffffffffffffffffffffffffffffffffffffff021916908373ffffffffffffffffffffffffffffffffffffffff160217905550505050505050565b6000806060806060600080600560008973ffffffffffffffffffffffffffffffffffffffff1673ffffffffffffffffffffffffffffffffffffffff16815260200190815260200160002060000154600560008a73ffffffffffffffffffffffffffffffffffffffff1673ffffffffffffffffffffffffffffffffffffffff16815260200190815260200160002060010160009054906101000a900473ffffffffffffffffffffffffffffffffffffffff16600560008b73ffffffffffffffffffffffffffffffffffffffff1673ffffffffffffffffffffffffffffffffffffffff168152602001908152602001600020600201600560008c73ffffffffffffffffffffffffffffffffffffffff1673ffffffffffffffffffffffffffffffffffffffff168152602001908152602001600020600301600560008d73ffffffffffffffffffffffffffffffffffffffff1673ffffffffffffffffffffffffffffffffffffffff168152602001908152602001600020600401600560008e73ffffffffffffffffffffffffffffffffffffffff1673ffffffffffffffffffffffffffffffffffffffff16815260200190815260200160002060070154600560008f73ffffffffffffffffffffffffffffffffffffffff1673ffffffffffffffffffffffffffffffffffffffff16815260200190815260200160002060060154848054610803906123ee565b80601f016020809104026020016040519081016040528092919081815260200182805461082f906123ee565b801561087c5780601f106108515761010080835404028352916020019161087c565b820191906000526020600020905b81548152906001019060200180831161085f57829003601f168201915b5050505050945083805461088f906123ee565b80601f01602080910402602001604051908101604052809291908181526020018280546108bb906123ee565b80156109085780601f106108dd57610100808354040283529160200191610908565b820191906000526020600020905b8154815290600101906020018083116108eb57829003601f168201915b5050505050935082805461091b906123ee565b80601f0160208091040260200160405190810160405280929190818152602001828054610947906123ee565b80156109945780601f1061096957610100808354040283529160200191610994565b820191906000526020600020905b81548152906001019060200180831161097757829003601f168201915b505050505092509650965096509650965096509650919395979092949650565b600481815481106109c457600080fd5b906000526020600020016000915054906101000a900473ffffffffffffffffffffffffffffffffffffffff1681565b600260009054906101000a900473ffffffffffffffffffffffffffffffffffffffff1681565b60068181548110610a2957600080fd5b906000526020600020016000915054906101000a900473ffffffffffffffffffffffffffffffffffffffff1681565b6000600860003373ffffffffffffffffffffffffffffffffffffffff1673ffffffffffffffffffffffffffffffffffffffff16815260200190815260200160002090508060070160009054906101000a900460ff1615610aed576040517f08c379a0000000000000000000000000000000000000000000000000000000008152600401610ae4906126e9565b60405180910390fd5b806006016000815480929190610b0290612738565b91905055506000816006015411610b4e576040517f08c379a0000000000000000000000000000000000000000000000000000000008152600401610b45906127cc565b60405180910390fd5b806006016000815480929190610b63906127ec565b919050555060018160070160006101000a81548160ff0219169083151502179055508181600501819055508060060154600560008573ffffffffffffffffffffffffffffffffffffffff1673ffffffffffffffffffffffffffffffffffffffff1681526020019081526020016000206007016000828254610be49190612815565b9250508190555060056000600360009054906101000a900473ffffffffffffffffffffffffffffffffffffffff1673ffffffffffffffffffffffffffffffffffffffff1673ffffffffffffffffffffffffffffffffffffffff16815260200190815260200160002060070154600560008573ffffffffffffffffffffffffffffffffffffffff1673ffffffffffffffffffffffffffffffffffffffff168152602001908152602001600020600701541115610cdb5782600360006101000a81548173ffffffffffffffffffffffffffffffffffffffff021916908373ffffffffffffffffffffffffffffffffffffffff1602179055505b505050565b60606004805480602002602001604051908101604052809291908181526020018280548015610d6457602002820191906000526020600020905b8160009054906101000a900473ffffffffffffffffffffffffffffffffffffffff1673ffffffffffffffffffffffffffffffffffffffff1681526020019060010190808311610d1a575b5050505050905090565b60078181548110610d7e57600080fd5b906000526020600020016000915054906101000a900473ffffffffffffffffffffffffffffffffffffffff1681565b600260009054906101000a900473ffffffffffffffffffffffffffffffffffffffff1673ffffffffffffffffffffffffffffffffffffffff163373ffffffffffffffffffffffffffffffffffffffff1614610e3d576040517f08c379a0000000000000000000000000000000000000000000000000000000008152600401610e3490612895565b60405180910390fd5b6000600360006101000a81548173ffffffffffffffffffffffffffffffffffffffff021916908373ffffffffffffffffffffffffffffffffffffffff160217905550565b6000600560008873ffffffffffffffffffffffffffffffffffffffff1673ffffffffffffffffffffffffffffffffffffffff1681526020019081526020016000209050600260009054906101000a900473ffffffffffffffffffffffffffffffffffffffff1673ffffffffffffffffffffffffffffffffffffffff163373ffffffffffffffffffffffffffffffffffffffff1614610f54576040517f08c379a0000000000000000000000000000000000000000000000000000000008152600401610f4b90612927565b60405180910390fd5b42816006015410610f9a576040517f08c379a0000000000000000000000000000000000000000000000000000000008152600401610f91906129b9565b60405180910390fd5b610fa46000611a96565b6000610fb06000611aac565b9050808260000181905550878260010160006101000a81548173ffffffffffffffffffffffffffffffffffffffff021916908373ffffffffffffffffffffffffffffffffffffffff1602179055508582600201908161100f91906125cb565b508382600301908161102191906125cb565b508482600401908161103391906125cb565b508282600501908161104591906125cb565b50868260060181905550600082600701819055506004889080600181540180825580915050600190039060005260206000200160009091909190916101000a81548173ffffffffffffffffffffffffffffffffffffffff021916908373ffffffffffffffffffffffffffffffffffffffff1602179055505050505050505050565b60606000600680805490508180548060200260200160405190810160405280929190818152602001828054801561115257602002820191906000526020600020905b8160009054906101000a900473ffffffffffffffffffffffffffffffffffffffff1673ffffffffffffffffffffffffffffffffffffffff1681526020019060010190808311611108575b50505050509150915091509091565b60056020528060005260406000206000915090508060000154908060010160009054906101000a900473ffffffffffffffffffffffffffffffffffffffff16908060020180546111b0906123ee565b80601f01602080910402602001604051908101604052809291908181526020018280546111dc906123ee565b80156112295780601f106111fe57610100808354040283529160200191611229565b820191906000526020600020905b81548152906001019060200180831161120c57829003601f168201915b50505050509080600301805461123e906123ee565b80601f016020809104026020016040519081016040528092919081815260200182805461126a906123ee565b80156112b75780601f1061128c576101008083540402835291602001916112b7565b820191906000526020600020905b81548152906001019060200180831161129a57829003601f168201915b5050505050908060040180546112cc906123ee565b80601f01602080910402602001604051908101604052809291908181526020018280546112f8906123ee565b80156113455780601f1061131a57610100808354040283529160200191611345565b820191906000526020600020905b81548152906001019060200180831161132857829003601f168201915b50505050509080600501805461135a906123ee565b80601f0160208091040260200160405190810160405280929190818152602001828054611386906123ee565b80156113d35780601f106113a8576101008083540402835291602001916113d3565b820191906000526020600020905b8154815290600101906020018083116113b657829003601f168201915b5050505050908060060154908060070154905088565b6060600780548060200260200160405190810160405280929190818152602001828054801561146d57602002820191906000526020600020905b8160009054906101000a900473ffffffffffffffffffffffffffffffffffffffff1673ffffffffffffffffffffffffffffffffffffffff1681526020019060010190808311611423575b5050505050905090565b6000806060806060600080600860008973ffffffffffffffffffffffffffffffffffffffff1673ffffffffffffffffffffffffffffffffffffffff16815260200190815260200160002060000154600860008a73ffffffffffffffffffffffffffffffffffffffff1673ffffffffffffffffffffffffffffffffffffffff16815260200190815260200160002060010160009054906101000a900473ffffffffffffffffffffffffffffffffffffffff16600860008b73ffffffffffffffffffffffffffffffffffffffff1673ffffffffffffffffffffffffffffffffffffffff168152602001908152602001600020600201600860008c73ffffffffffffffffffffffffffffffffffffffff1673ffffffffffffffffffffffffffffffffffffffff168152602001908152602001600020600301600860008d73ffffffffffffffffffffffffffffffffffffffff1673ffffffffffffffffffffffffffffffffffffffff168152602001908152602001600020600401600860008e73ffffffffffffffffffffffffffffffffffffffff1673ffffffffffffffffffffffffffffffffffffffff16815260200190815260200160002060050154600860008f73ffffffffffffffffffffffffffffffffffffffff1673ffffffffffffffffffffffffffffffffffffffff16815260200190815260200160002060070160009054906101000a900460ff1684805461168d906123ee565b80601f01602080910402602001604051908101604052809291908181526020018280546116b9906123ee565b80156117065780601f106116db57610100808354040283529160200191611706565b820191906000526020600020905b8154815290600101906020018083116116e957829003601f168201915b50505050509450838054611719906123ee565b80601f0160208091040260200160405190810160405280929190818152602001828054611745906123ee565b80156117925780601f1061176757610100808354040283529160200191611792565b820191906000526020600020905b81548152906001019060200180831161177557829003601f168201915b505050505093508280546117a5906123ee565b80601f01602080910402602001604051908101604052809291908181526020018280546117d1906123ee565b801561181e5780601f106117f35761010080835404028352916020019161181e565b820191906000526020600020905b81548152906001019060200180831161180157829003601f168201915b505050505092509650965096509650965096509650919395979092949650565b600360009054906101000a900473ffffffffffffffffffffffffffffffffffffffff1681565b60086020528060005260406000206000915090508060000154908060010160009054906101000a900473ffffffffffffffffffffffffffffffffffffffff16908060020180546118b3906123ee565b80601f01602080910402602001604051908101604052809291908181526020018280546118df906123ee565b801561192c5780601f106119015761010080835404028352916020019161192c565b820191906000526020600020905b81548152906001019060200180831161190f57829003601f168201915b505050505090806003018054611941906123ee565b80601f016020809104026020016040519081016040528092919081815260200182805461196d906123ee565b80156119ba5780601f1061198f576101008083540402835291602001916119ba565b820191906000526020600020905b81548152906001019060200180831161199d57829003601f168201915b5050505050908060040180546119cf906123ee565b80601f01602080910402602001604051908101604052809291908181526020018280546119fb906123ee565b8015611a485780601f10611a1d57610100808354040283529160200191611a48565b820191906000526020600020905b815481529060010190602001808311611a2b57829003601f168201915b5050505050908060050154908060060154908060070160009054906101000a900460ff16905088565b60008060000154905081565b60018060000154905081565b6000600480549050905090565b6001816000016000828254019250508190555050565b600081600001549050919050565b6000604051905090565b600080fd5b600080fd5b600073ffffffffffffffffffffffffffffffffffffffff82169050919050565b6000611af982611ace565b9050919050565b611b0981611aee565b8114611b1457600080fd5b50565b600081359050611b2681611b00565b92915050565b600080fd5b600080fd5b6000601f19601f8301169050919050565b7f4e487b7100000000000000000000000000000000000000000000000000000000600052604160045260246000fd5b611b7f82611b36565b810181811067ffffffffffffffff82111715611b9e57611b9d611b47565b5b80604052505050565b6000611bb1611aba565b9050611bbd8282611b76565b919050565b600067ffffffffffffffff821115611bdd57611bdc611b47565b5b611be682611b36565b9050602081019050919050565b82818337600083830152505050565b6000611c15611c1084611bc2565b611ba7565b905082815260208101848484011115611c3157611c30611b31565b5b611c3c848285611bf3565b509392505050565b600082601f830112611c5957611c58611b2c565b5b8135611c69848260208601611c02565b91505092915050565b60008060008060808587031215611c8c57611c8b611ac4565b5b6000611c9a87828801611b17565b945050602085013567ffffffffffffffff811115611cbb57611cba611ac9565b5b611cc787828801611c44565b935050604085013567ffffffffffffffff811115611ce857611ce7611ac9565b5b611cf487828801611c44565b925050606085013567ffffffffffffffff811115611d1557611d14611ac9565b5b611d2187828801611c44565b91505092959194509250565b600060208284031215611d4357611d42611ac4565b5b6000611d5184828501611b17565b91505092915050565b6000819050919050565b611d6d81611d5a565b82525050565b611d7c81611aee565b82525050565b600081519050919050565b600082825260208201905092915050565b60005b83811015611dbc578082015181840152602081019050611da1565b60008484015250505050565b6000611dd382611d82565b611ddd8185611d8d565b9350611ded818560208601611d9e565b611df681611b36565b840191505092915050565b600060e082019050611e16600083018a611d64565b611e236020830189611d73565b8181036040830152611e358188611dc8565b90508181036060830152611e498187611dc8565b90508181036080830152611e5d8186611dc8565b9050611e6c60a0830185611d64565b611e7960c0830184611d64565b98975050505050505050565b611e8e81611d5a565b8114611e9957600080fd5b50565b600081359050611eab81611e85565b92915050565b600060208284031215611ec757611ec6611ac4565b5b6000611ed584828501611e9c565b91505092915050565b6000602082019050611ef36000830184611d73565b92915050565b60008060408385031215611f1057611f0f611ac4565b5b6000611f1e85828601611b17565b9250506020611f2f85828601611e9c565b9150509250929050565b600081519050919050565b600082825260208201905092915050565b6000819050602082019050919050565b611f6e81611aee565b82525050565b6000611f808383611f65565b60208301905092915050565b6000602082019050919050565b6000611fa482611f39565b611fae8185611f44565b9350611fb983611f55565b8060005b83811015611fea578151611fd18882611f74565b9750611fdc83611f8c565b925050600181019050611fbd565b5085935050505092915050565b600060208201905081810360008301526120118184611f99565b905092915050565b60008060008060008060c0878903121561203657612035611ac4565b5b600061204489828a01611b17565b965050602061205589828a01611e9c565b955050604087013567ffffffffffffffff81111561207657612075611ac9565b5b61208289828a01611c44565b945050606087013567ffffffffffffffff8111156120a3576120a2611ac9565b5b6120af89828a01611c44565b935050608087013567ffffffffffffffff8111156120d0576120cf611ac9565b5b6120dc89828a01611c44565b92505060a087013567ffffffffffffffff8111156120fd576120fc611ac9565b5b61210989828a01611c44565b9150509295509295509295565b600060408201905081810360008301526121308185611f99565b905061213f6020830184611d64565b9392505050565b60006101008201905061215c600083018b611d64565b612169602083018a611d73565b818103604083015261217b8189611dc8565b9050818103606083015261218f8188611dc8565b905081810360808301526121a38187611dc8565b905081810360a08301526121b78186611dc8565b90506121c660c0830185611d64565b6121d360e0830184611d64565b9998505050505050505050565b60008115159050919050565b6121f5816121e0565b82525050565b600060e082019050612210600083018a611d64565b61221d6020830189611d73565b818103604083015261222f8188611dc8565b905081810360608301526122438187611dc8565b905081810360808301526122578186611dc8565b905061226660a0830185611d64565b61227360c08301846121ec565b98975050505050505050565b600061010082019050612295600083018b611d64565b6122a2602083018a611d73565b81810360408301526122b48189611dc8565b905081810360608301526122c88188611dc8565b905081810360808301526122dc8187611dc8565b90506122eb60a0830186611d64565b6122f860c0830185611d64565b61230560e08301846121ec565b9998505050505050505050565b60006020820190506123276000830184611d64565b92915050565b7f4f6e6c79204f7267616e697a65722063616e20726567697374657220766f746560008201527f7200000000000000000000000000000000000000000000000000000000000000602082015250565b6000612389602183611d8d565b91506123948261232d565b604082019050919050565b600060208201905081810360008301526123b88161237c565b9050919050565b7f4e487b7100000000000000000000000000000000000000000000000000000000600052602260045260246000fd5b6000600282049050600182168061240657607f821691505b602082108103612419576124186123bf565b5b50919050565b60008190508160005260206000209050919050565b60006020601f8301049050919050565b600082821b905092915050565b6000600883026124817fffffffffffffffffffffffffffffffffffffffffffffffffffffffffffffffff82612444565b61248b8683612444565b95508019841693508086168417925050509392505050565b6000819050919050565b60006124c86124c36124be84611d5a565b6124a3565b611d5a565b9050919050565b6000819050919050565b6124e2836124ad565b6124f66124ee826124cf565b848454612451565b825550505050565b600090565b61250b6124fe565b6125168184846124d9565b505050565b5b8181101561253a5761252f600082612503565b60018101905061251c565b5050565b601f82111561257f576125508161241f565b61255984612434565b81016020851015612568578190505b61257c61257485612434565b83018261251b565b50505b505050565b600082821c905092915050565b60006125a260001984600802612584565b1980831691505092915050565b60006125bb8383612591565b9150826002028217905092915050565b6125d482611d82565b67ffffffffffffffff8111156125ed576125ec611b47565b5b6125f782546123ee565b61260282828561253e565b600060209050601f8311600181146126355760008415612623578287015190505b61262d85826125af565b865550612695565b601f1984166126438661241f565b60005b8281101561266b57848901518255600182019150602085019450602081019050612646565b868310156126885784890151612684601f891682612591565b8355505b6001600288020188555050505b505050505050565b7f596f75206861766520616c726561647920766f74656400000000000000000000600082015250565b60006126d3601683611d8d565b91506126de8261269d565b602082019050919050565b60006020820190508181036000830152612702816126c6565b9050919050565b7f4e487b7100000000000000000000000000000000000000000000000000000000600052601160045260246000fd5b600061274382611d5a565b91507fffffffffffffffffffffffffffffffffffffffffffffffffffffffffffffffff820361277557612774612709565b5b600182019050919050565b7f596f752068617665206e6f20726967687420746f20766f746500000000000000600082015250565b60006127b6601983611d8d565b91506127c182612780565b602082019050919050565b600060208201905081810360008301526127e5816127a9565b9050919050565b60006127f782611d5a565b91506000820361280a57612809612709565b5b600182039050919050565b600061282082611d5a565b915061282b83611d5a565b925082820190508082111561284357612842612709565b5b92915050565b7f4f6e6c79204f7267616e697a65722063616e2072657365742077696e6e657200600082015250565b600061287f601f83611d8d565b915061288a82612849565b602082019050919050565b600060208201905081810360008301526128ae81612872565b9050919050565b7f4f6e6c7920766f74696e67204f7267616e697a65722063616e2073657420436160008201527f6e64696461746500000000000000000000000000000000000000000000000000602082015250565b6000612911602783611d8d565b915061291c826128b5565b604082019050919050565b6000602082019050818103600083015261294081612904565b9050919050565b7f43616e64696461746520646561646c696e652073686f756c6420626520696e2060008201527f7468652066757475726500000000000000000000000000000000000000000000602082015250565b60006129a3602a83611d8d565b91506129ae82612947565b604082019050919050565b600060208201905081810360008301526129d281612996565b905091905056fea26469706673582212202c6828c6aeadc7bb7ce9f8b7d42c11ae31ff53be9a05e61f06fde7320e6c054364736f6c63430008130033",
  "linkReferences": {},
  "deployedLinkReferences": {}
}