{
  "_format": "hh-sol-artifact-1",
  "contractName": "Create",
  "sourceName": "contracts/VotingContracts.sol",
  "abi": [
    {
      "inputs": [],
      "stateMutability": "nonpayable",
      "type": "constructor"
    },
    {
      "inputs": [],
      "name": "_candidateId",
      "outputs": [
        {
          "internalType": "uint256",
          "name": "_value",
          "type": "uint256"
        }
      ],
      "stateMutability": "view",
      "type": "function"
    },
    {
      "inputs": [],
      "name": "_voterId",
      "outputs": [
        {
          "internalType": "uint256",
          "name": "_value",
          "type": "uint256"
        }
      ],
      "stateMutability": "view",
      "type": "function"
    },
    {
      "inputs": [
        {
          "internalType": "uint256",
          "name": "",
          "type": "uint256"
        }
      ],
      "name": "candidateAddress",
      "outputs": [
        {
          "internalType": "address",
          "name": "",
          "type": "address"
        }
      ],
      "stateMutability": "view",
      "type": "function"
    },
    {
      "inputs": [
        {
          "internalType": "address",
          "name": "",
          "type": "address"
        }
      ],
      "name": "candidates",
      "outputs": [
        {
          "internalType": "uint256",
          "name": "id",
          "type": "uint256"
        },
        {
          "internalType": "address",
          "name": "_address",
          "type": "address"
        },
        {
          "internalType": "string",
          "name": "name",
          "type": "string"
        },
        {
          "internalType": "string",
          "name": "image",
          "type": "string"
        },
        {
          "internalType": "string",
          "name": "age",
          "type": "string"
        },
        {
          "internalType": "string",
          "name": "ipfs",
          "type": "string"
        },
        {
          "internalType": "uint256",
          "name": "deadline",
          "type": "uint256"
        },
        {
          "internalType": "uint256",
          "name": "voteCount",
          "type": "uint256"
        }
      ],
      "stateMutability": "view",
      "type": "function"
    },
    {
      "inputs": [],
      "name": "getCandidate",
      "outputs": [
        {
          "internalType": "address[]",
          "name": "",
          "type": "address[]"
        }
      ],
      "stateMutability": "view",
      "type": "function"
    },
    {
      "inputs": [
        {
          "internalType": "address",
          "name": "_address",
          "type": "address"
        }
      ],
      "name": "getCandidateData",
      "outputs": [
        {
          "internalType": "uint256",
          "name": "",
          "type": "uint256"
        },
        {
          "internalType": "address",
          "name": "",
          "type": "address"
        },
        {
          "internalType": "string",
          "name": "",
          "type": "string"
        },
        {
          "internalType": "string",
          "name": "",
          "type": "string"
        },
        {
          "internalType": "string",
          "name": "",
          "type": "string"
        },
        {
          "internalType": "uint256",
          "name": "",
          "type": "uint256"
        },
        {
          "internalType": "uint256",
          "name": "",
          "type": "uint256"
        }
      ],
      "stateMutability": "view",
      "type": "function"
    },
    {
      "inputs": [],
      "name": "getCandidateLength",
      "outputs": [
        {
          "internalType": "uint256",
          "name": "",
          "type": "uint256"
        }
      ],
      "stateMutability": "view",
      "type": "function"
    },
    {
      "inputs": [],
      "name": "getVotedVoterList",
      "outputs": [
        {
          "internalType": "address[]",
          "name": "",
          "type": "address[]"
        }
      ],
      "stateMutability": "view",
      "type": "function"
    },
    {
      "inputs": [],
      "name": "getVoterAddress",
      "outputs": [
        {
          "internalType": "address[]",
          "name": "",
          "type": "address[]"
        },
        {
          "internalType": "uint256",
          "name": "",
          "type": "uint256"
        }
      ],
      "stateMutability": "view",
      "type": "function"
    },
    {
      "inputs": [
        {
          "internalType": "address",
          "name": "_address",
          "type": "address"
        }
      ],
      "name": "getVoterData",
      "outputs": [
        {
          "internalType": "uint256",
          "name": "",
          "type": "uint256"
        },
        {
          "internalType": "address",
          "name": "",
          "type": "address"
        },
        {
          "internalType": "string",
          "name": "",
          "type": "string"
        },
        {
          "internalType": "string",
          "name": "",
          "type": "string"
        },
        {
          "internalType": "string",
          "name": "",
          "type": "string"
        },
        {
          "internalType": "uint256",
          "name": "",
          "type": "uint256"
        },
        {
          "internalType": "bool",
          "name": "",
          "type": "bool"
        }
      ],
      "stateMutability": "view",
      "type": "function"
    },
    {
      "inputs": [],
      "name": "resetWinner",
      "outputs": [],
      "stateMutability": "nonpayable",
      "type": "function"
    },
    {
      "inputs": [
        {
          "internalType": "address",
          "name": "_address",
          "type": "address"
        },
        {
          "internalType": "uint256",
          "name": "_deadline",
          "type": "uint256"
        },
        {
          "internalType": "string",
          "name": "_name",
          "type": "string"
        },
        {
          "internalType": "string",
          "name": "_age",
          "type": "string"
        },
        {
          "internalType": "string",
          "name": "_image",
          "type": "string"
        },
        {
          "internalType": "string",
          "name": "_ipfs",
          "type": "string"
        }
      ],
      "name": "setCandidate",
      "outputs": [],
      "stateMutability": "nonpayable",
      "type": "function"
    },
    {
      "inputs": [
        {
          "internalType": "address",
          "name": "_candidateAddress",
          "type": "address"
        },
        {
          "internalType": "uint256",
          "name": "_candidateVoterId",
          "type": "uint256"
        }
      ],
      "name": "vote",
      "outputs": [],
      "stateMutability": "nonpayable",
      "type": "function"
    },
    {
      "inputs": [
        {
          "internalType": "uint256",
          "name": "",
          "type": "uint256"
        }
      ],
      "name": "votedVoters",
      "outputs": [
        {
          "internalType": "address",
          "name": "",
          "type": "address"
        }
      ],
      "stateMutability": "view",
      "type": "function"
    },
    {
      "inputs": [
        {
          "internalType": "uint256",
          "name": "",
          "type": "uint256"
        }
      ],
      "name": "voterAddress",
      "outputs": [
        {
          "internalType": "address",
          "name": "",
          "type": "address"
        }
      ],
      "stateMutability": "view",
      "type": "function"
    },
    {
      "inputs": [
        {
          "internalType": "address",
          "name": "_address",
          "type": "address"
        },
        {
          "internalType": "string",
          "name": "_name",
          "type": "string"
        },
        {
          "internalType": "string",
          "name": "_image",
          "type": "string"
        },
        {
          "internalType": "string",
          "name": "_ipfs",
          "type": "string"
        }
      ],
      "name": "voterRight",
      "outputs": [],
      "stateMutability": "nonpayable",
      "type": "function"
    },
    {
      "inputs": [
        {
          "internalType": "address",
          "name": "",
          "type": "address"
        }
      ],
      "name": "voters",
      "outputs": [
        {
          "internalType": "uint256",
          "name": "voterId",
          "type": "uint256"
        },
        {
          "internalType": "address",
          "name": "voter_Address",
          "type": "address"
        },
        {
          "internalType": "string",
          "name": "voterName",
          "type": "string"
        },
        {
          "internalType": "string",
          "name": "voterImage",
          "type": "string"
        },
        {
          "internalType": "string",
          "name": "voterIPfs",
          "type": "string"
        },
        {
          "internalType": "uint256",
          "name": "voter_vote",
          "type": "uint256"
        },
        {
          "internalType": "uint256",
          "name": "voter_allowed",
          "type": "uint256"
        },
        {
          "internalType": "bool",
          "name": "voter_voted",
          "type": "bool"
        }
      ],
      "stateMutability": "view",
      "type": "function"
    },
    {
      "inputs": [],
      "name": "votingOrganizer",
      "outputs": [
        {
          "internalType": "address",
          "name": "",
          "type": "address"
        }
      ],
      "stateMutability": "view",
      "type": "function"
    },
    {
      "inputs": [],
      "name": "winnerCandidate",
      "outputs": [
        {
          "internalType": "address",
          "name": "",
          "type": "address"
        }
      ],
      "stateMutability": "view",
      "type": "function"
    }
  ],
  "bytecode": "0x608060405234801561001057600080fd5b5033600260006101000a81548173ffffffffffffffffffffffffffffffffffffffff021916908373ffffffffffffffffffffffffffffffffffffffff1602179055506000600360006101000a81548173ffffffffffffffffffffffffffffffffffffffff021916908373ffffffffffffffffffffffffffffffffffffffff1602179055506129cd806100a36000396000f3fe608060405234801561001057600080fd5b50600436106101215760003560e01c8063880e4948116100ad578063a15148d111610071578063a15148d114610330578063a3ec138d1461034e578063a738896714610385578063b9be3152146103a3578063f7522a83146103c157610121565b8063880e49481461026a578063882384d3146102865780638ab66a90146102a55780638e945685146102dc5780638fb4cd80146102fa57610121565b80635d55f2de116100f45780635d55f2de146101c65780635f74bbde146101f657806370218b85146102125780637831ffb3146102305780637d882e9b1461026057610121565b80630361419e146101265780632a466ac7146101425780633a88251a146101785780635cc48aa7146101a8575b600080fd5b610140600480360381019061013b9190611ca1565b6103df565b005b61015c60048036038101906101579190611d5c565b6105fa565b60405161016f9796959493929190611e30565b60405180910390f35b610192600480360381019061018d9190611ee0565b6109b4565b60405161019f9190611f0d565b60405180910390f35b6101b06109f3565b6040516101bd9190611f0d565b60405180910390f35b6101e060048036038101906101db9190611ee0565b610a19565b6040516101ed9190611f0d565b60405180910390f35b610210600480360381019061020b9190611f28565b610a58565b005b61021a610d0f565b6040516102279190612026565b60405180910390f35b61024a60048036038101906102459190611ee0565b610d9d565b6040516102579190611f0d565b60405180910390f35b610268610ddc565b005b610284600480360381019061027f9190612048565b610eb0565b005b61028e6110f5565b60405161029c929190612145565b60405180910390f35b6102bf60048036038101906102ba9190611d5c565b611190565b6040516102d3989796959493929190612175565b60405180910390f35b6102e4611418565b6040516102f19190612026565b60405180910390f35b610314600480360381019061030f9190611d5c565b6114a6565b604051610327979695949392919061222a565b60405180910390f35b61033861186d565b6040516103459190611f0d565b60405180910390f35b61036860048036038101906103639190611d5c565b611893565b60405161037c9897969594939291906122ae565b60405180910390f35b61038d611aa0565b60405161039a9190612341565b60405180910390f35b6103ab611aac565b6040516103b89190612341565b60405180910390f35b6103c9611ab8565b6040516103d69190612341565b60405180910390f35b6000600860008673ffffffffffffffffffffffffffffffffffffffff1673ffffffffffffffffffffffffffffffffffffffff1681526020019081526020016000209050600260009054906101000a900473ffffffffffffffffffffffffffffffffffffffff1673ffffffffffffffffffffffffffffffffffffffff163373ffffffffffffffffffffffffffffffffffffffff16146104b2576040517f08c379a00000000000000000000000000000000000000000000000000000000081526004016104a9906123ce565b60405180910390fd5b60008160060154146104c357600080fd5b6104cd6001611ac5565b60006104d96001611adb565b9050808260000181905550858260010160006101000a81548173ffffffffffffffffffffffffffffffffffffffff021916908373ffffffffffffffffffffffffffffffffffffffff1602179055508482600201908161053891906125fa565b508382600301908161054a91906125fa565b508282600401908161055c91906125fa565b50600182600601819055506103e8826005018190555060008260070160006101000a81548160ff0219169083151502179055506006869080600181540180825580915050600190039060005260206000200160009091909190916101000a81548173ffffffffffffffffffffffffffffffffffffffff021916908373ffffffffffffffffffffffffffffffffffffffff160217905550505050505050565b6000806060806060600080600560008973ffffffffffffffffffffffffffffffffffffffff1673ffffffffffffffffffffffffffffffffffffffff16815260200190815260200160002060000154600560008a73ffffffffffffffffffffffffffffffffffffffff1673ffffffffffffffffffffffffffffffffffffffff16815260200190815260200160002060010160009054906101000a900473ffffffffffffffffffffffffffffffffffffffff16600560008b73ffffffffffffffffffffffffffffffffffffffff1673ffffffffffffffffffffffffffffffffffffffff168152602001908152602001600020600201600560008c73ffffffffffffffffffffffffffffffffffffffff1673ffffffffffffffffffffffffffffffffffffffff168152602001908152602001600020600301600560008d73ffffffffffffffffffffffffffffffffffffffff1673ffffffffffffffffffffffffffffffffffffffff168152602001908152602001600020600401600560008e73ffffffffffffffffffffffffffffffffffffffff1673ffffffffffffffffffffffffffffffffffffffff16815260200190815260200160002060070154600560008f73ffffffffffffffffffffffffffffffffffffffff1673ffffffffffffffffffffffffffffffffffffffff168152602001908152602001600020600601548480546108039061241d565b80601f016020809104026020016040519081016040528092919081815260200182805461082f9061241d565b801561087c5780601f106108515761010080835404028352916020019161087c565b820191906000526020600020905b81548152906001019060200180831161085f57829003601f168201915b5050505050945083805461088f9061241d565b80601f01602080910402602001604051908101604052809291908181526020018280546108bb9061241d565b80156109085780601f106108dd57610100808354040283529160200191610908565b820191906000526020600020905b8154815290600101906020018083116108eb57829003601f168201915b5050505050935082805461091b9061241d565b80601f01602080910402602001604051908101604052809291908181526020018280546109479061241d565b80156109945780601f1061096957610100808354040283529160200191610994565b820191906000526020600020905b81548152906001019060200180831161097757829003601f168201915b505050505092509650965096509650965096509650919395979092949650565b600481815481106109c457600080fd5b906000526020600020016000915054906101000a900473ffffffffffffffffffffffffffffffffffffffff1681565b600260009054906101000a900473ffffffffffffffffffffffffffffffffffffffff1681565b60068181548110610a2957600080fd5b906000526020600020016000915054906101000a900473ffffffffffffffffffffffffffffffffffffffff1681565b6000600860003373ffffffffffffffffffffffffffffffffffffffff1673ffffffffffffffffffffffffffffffffffffffff16815260200190815260200160002090508060070160009054906101000a900460ff1615610aed576040517f08c379a0000000000000000000000000000000000000000000000000000000008152600401610ae490612718565b60405180910390fd5b6000816006015411610b34576040517f08c379a0000000000000000000000000000000000000000000000000000000008152600401610b2b90612784565b60405180910390fd5b60018160070160006101000a81548160ff0219169083151502179055506007339080600181540180825580915050600190039060005260206000200160009091909190916101000a81548173ffffffffffffffffffffffffffffffffffffffff021916908373ffffffffffffffffffffffffffffffffffffffff1602179055508181600501819055508060060154600560008573ffffffffffffffffffffffffffffffffffffffff1673ffffffffffffffffffffffffffffffffffffffff1681526020019081526020016000206007016000828254610c1391906127d3565b9250508190555060056000600360009054906101000a900473ffffffffffffffffffffffffffffffffffffffff1673ffffffffffffffffffffffffffffffffffffffff1673ffffffffffffffffffffffffffffffffffffffff16815260200190815260200160002060070154600560008573ffffffffffffffffffffffffffffffffffffffff1673ffffffffffffffffffffffffffffffffffffffff168152602001908152602001600020600701541115610d0a5782600360006101000a81548173ffffffffffffffffffffffffffffffffffffffff021916908373ffffffffffffffffffffffffffffffffffffffff1602179055505b505050565b60606004805480602002602001604051908101604052809291908181526020018280548015610d9357602002820191906000526020600020905b8160009054906101000a900473ffffffffffffffffffffffffffffffffffffffff1673ffffffffffffffffffffffffffffffffffffffff1681526020019060010190808311610d49575b5050505050905090565b60078181548110610dad57600080fd5b906000526020600020016000915054906101000a900473ffffffffffffffffffffffffffffffffffffffff1681565b600260009054906101000a900473ffffffffffffffffffffffffffffffffffffffff1673ffffffffffffffffffffffffffffffffffffffff163373ffffffffffffffffffffffffffffffffffffffff1614610e6c576040517f08c379a0000000000000000000000000000000000000000000000000000000008152600401610e6390612853565b60405180910390fd5b6000600360006101000a81548173ffffffffffffffffffffffffffffffffffffffff021916908373ffffffffffffffffffffffffffffffffffffffff160217905550565b6000600560008873ffffffffffffffffffffffffffffffffffffffff1673ffffffffffffffffffffffffffffffffffffffff1681526020019081526020016000209050600260009054906101000a900473ffffffffffffffffffffffffffffffffffffffff1673ffffffffffffffffffffffffffffffffffffffff163373ffffffffffffffffffffffffffffffffffffffff1614610f83576040517f08c379a0000000000000000000000000000000000000000000000000000000008152600401610f7a906128e5565b60405180910390fd5b42816006015410610fc9576040517f08c379a0000000000000000000000000000000000000000000000000000000008152600401610fc090612977565b60405180910390fd5b610fd36000611ac5565b6000610fdf6000611adb565b9050808260000181905550878260010160006101000a81548173ffffffffffffffffffffffffffffffffffffffff021916908373ffffffffffffffffffffffffffffffffffffffff1602179055508582600201908161103e91906125fa565b508382600301908161105091906125fa565b508482600401908161106291906125fa565b508282600501908161107491906125fa565b50868260060181905550600082600701819055506004889080600181540180825580915050600190039060005260206000200160009091909190916101000a81548173ffffffffffffffffffffffffffffffffffffffff021916908373ffffffffffffffffffffffffffffffffffffffff1602179055505050505050505050565b60606000600680805490508180548060200260200160405190810160405280929190818152602001828054801561118157602002820191906000526020600020905b8160009054906101000a900473ffffffffffffffffffffffffffffffffffffffff1673ffffffffffffffffffffffffffffffffffffffff1681526020019060010190808311611137575b50505050509150915091509091565b60056020528060005260406000206000915090508060000154908060010160009054906101000a900473ffffffffffffffffffffffffffffffffffffffff16908060020180546111df9061241d565b80601f016020809104026020016040519081016040528092919081815260200182805461120b9061241d565b80156112585780601f1061122d57610100808354040283529160200191611258565b820191906000526020600020905b81548152906001019060200180831161123b57829003601f168201915b50505050509080600301805461126d9061241d565b80601f01602080910402602001604051908101604052809291908181526020018280546112999061241d565b80156112e65780601f106112bb576101008083540402835291602001916112e6565b820191906000526020600020905b8154815290600101906020018083116112c957829003601f168201915b5050505050908060040180546112fb9061241d565b80601f01602080910402602001604051908101604052809291908181526020018280546113279061241d565b80156113745780601f1061134957610100808354040283529160200191611374565b820191906000526020600020905b81548152906001019060200180831161135757829003601f168201915b5050505050908060050180546113899061241d565b80601f01602080910402602001604051908101604052809291908181526020018280546113b59061241d565b80156114025780601f106113d757610100808354040283529160200191611402565b820191906000526020600020905b8154815290600101906020018083116113e557829003601f168201915b5050505050908060060154908060070154905088565b6060600780548060200260200160405190810160405280929190818152602001828054801561149c57602002820191906000526020600020905b8160009054906101000a900473ffffffffffffffffffffffffffffffffffffffff1673ffffffffffffffffffffffffffffffffffffffff1681526020019060010190808311611452575b5050505050905090565b6000806060806060600080600860008973ffffffffffffffffffffffffffffffffffffffff1673ffffffffffffffffffffffffffffffffffffffff16815260200190815260200160002060000154600860008a73ffffffffffffffffffffffffffffffffffffffff1673ffffffffffffffffffffffffffffffffffffffff16815260200190815260200160002060010160009054906101000a900473ffffffffffffffffffffffffffffffffffffffff16600860008b73ffffffffffffffffffffffffffffffffffffffff1673ffffffffffffffffffffffffffffffffffffffff168152602001908152602001600020600201600860008c73ffffffffffffffffffffffffffffffffffffffff1673ffffffffffffffffffffffffffffffffffffffff168152602001908152602001600020600301600860008d73ffffffffffffffffffffffffffffffffffffffff1673ffffffffffffffffffffffffffffffffffffffff168152602001908152602001600020600401600860008e73ffffffffffffffffffffffffffffffffffffffff1673ffffffffffffffffffffffffffffffffffffffff16815260200190815260200160002060050154600860008f73ffffffffffffffffffffffffffffffffffffffff1673ffffffffffffffffffffffffffffffffffffffff16815260200190815260200160002060070160009054906101000a900460ff168480546116bc9061241d565b80601f01602080910402602001604051908101604052809291908181526020018280546116e89061241d565b80156117355780601f1061170a57610100808354040283529160200191611735565b820191906000526020600020905b81548152906001019060200180831161171857829003601f168201915b505050505094508380546117489061241d565b80601f01602080910402602001604051908101604052809291908181526020018280546117749061241d565b80156117c15780601f10611796576101008083540402835291602001916117c1565b820191906000526020600020905b8154815290600101906020018083116117a457829003601f168201915b505050505093508280546117d49061241d565b80601f01602080910402602001604051908101604052809291908181526020018280546118009061241d565b801561184d5780601f106118225761010080835404028352916020019161184d565b820191906000526020600020905b81548152906001019060200180831161183057829003601f168201915b505050505092509650965096509650965096509650919395979092949650565b600360009054906101000a900473ffffffffffffffffffffffffffffffffffffffff1681565b60086020528060005260406000206000915090508060000154908060010160009054906101000a900473ffffffffffffffffffffffffffffffffffffffff16908060020180546118e29061241d565b80601f016020809104026020016040519081016040528092919081815260200182805461190e9061241d565b801561195b5780601f106119305761010080835404028352916020019161195b565b820191906000526020600020905b81548152906001019060200180831161193e57829003601f168201915b5050505050908060030180546119709061241d565b80601f016020809104026020016040519081016040528092919081815260200182805461199c9061241d565b80156119e95780601f106119be576101008083540402835291602001916119e9565b820191906000526020600020905b8154815290600101906020018083116119cc57829003601f168201915b5050505050908060040180546119fe9061241d565b80601f0160208091040260200160405190810160405280929190818152602001828054611a2a9061241d565b8015611a775780601f10611a4c57610100808354040283529160200191611a77565b820191906000526020600020905b815481529060010190602001808311611a5a57829003601f168201915b5050505050908060050154908060060154908060070160009054906101000a900460ff16905088565b60008060000154905081565b60018060000154905081565b6000600480549050905090565b6001816000016000828254019250508190555050565b600081600001549050919050565b6000604051905090565b600080fd5b600080fd5b600073ffffffffffffffffffffffffffffffffffffffff82169050919050565b6000611b2882611afd565b9050919050565b611b3881611b1d565b8114611b4357600080fd5b50565b600081359050611b5581611b2f565b92915050565b600080fd5b600080fd5b6000601f19601f8301169050919050565b7f4e487b7100000000000000000000000000000000000000000000000000000000600052604160045260246000fd5b611bae82611b65565b810181811067ffffffffffffffff82111715611bcd57611bcc611b76565b5b80604052505050565b6000611be0611ae9565b9050611bec8282611ba5565b919050565b600067ffffffffffffffff821115611c0c57611c0b611b76565b5b611c1582611b65565b9050602081019050919050565b82818337600083830152505050565b6000611c44611c3f84611bf1565b611bd6565b905082815260208101848484011115611c6057611c5f611b60565b5b611c6b848285611c22565b509392505050565b600082601f830112611c8857611c87611b5b565b5b8135611c98848260208601611c31565b91505092915050565b60008060008060808587031215611cbb57611cba611af3565b5b6000611cc987828801611b46565b945050602085013567ffffffffffffffff811115611cea57611ce9611af8565b5b611cf687828801611c73565b935050604085013567ffffffffffffffff811115611d1757611d16611af8565b5b611d2387828801611c73565b925050606085013567ffffffffffffffff811115611d4457611d43611af8565b5b611d5087828801611c73565b91505092959194509250565b600060208284031215611d7257611d71611af3565b5b6000611d8084828501611b46565b91505092915050565b6000819050919050565b611d9c81611d89565b82525050565b611dab81611b1d565b82525050565b600081519050919050565b600082825260208201905092915050565b60005b83811015611deb578082015181840152602081019050611dd0565b60008484015250505050565b6000611e0282611db1565b611e0c8185611dbc565b9350611e1c818560208601611dcd565b611e2581611b65565b840191505092915050565b600060e082019050611e45600083018a611d93565b611e526020830189611da2565b8181036040830152611e648188611df7565b90508181036060830152611e788187611df7565b90508181036080830152611e8c8186611df7565b9050611e9b60a0830185611d93565b611ea860c0830184611d93565b98975050505050505050565b611ebd81611d89565b8114611ec857600080fd5b50565b600081359050611eda81611eb4565b92915050565b600060208284031215611ef657611ef5611af3565b5b6000611f0484828501611ecb565b91505092915050565b6000602082019050611f226000830184611da2565b92915050565b60008060408385031215611f3f57611f3e611af3565b5b6000611f4d85828601611b46565b9250506020611f5e85828601611ecb565b9150509250929050565b600081519050919050565b600082825260208201905092915050565b6000819050602082019050919050565b611f9d81611b1d565b82525050565b6000611faf8383611f94565b60208301905092915050565b6000602082019050919050565b6000611fd382611f68565b611fdd8185611f73565b9350611fe883611f84565b8060005b838110156120195781516120008882611fa3565b975061200b83611fbb565b925050600181019050611fec565b5085935050505092915050565b600060208201905081810360008301526120408184611fc8565b905092915050565b60008060008060008060c0878903121561206557612064611af3565b5b600061207389828a01611b46565b965050602061208489828a01611ecb565b955050604087013567ffffffffffffffff8111156120a5576120a4611af8565b5b6120b189828a01611c73565b945050606087013567ffffffffffffffff8111156120d2576120d1611af8565b5b6120de89828a01611c73565b935050608087013567ffffffffffffffff8111156120ff576120fe611af8565b5b61210b89828a01611c73565b92505060a087013567ffffffffffffffff81111561212c5761212b611af8565b5b61213889828a01611c73565b9150509295509295509295565b6000604082019050818103600083015261215f8185611fc8565b905061216e6020830184611d93565b9392505050565b60006101008201905061218b600083018b611d93565b612198602083018a611da2565b81810360408301526121aa8189611df7565b905081810360608301526121be8188611df7565b905081810360808301526121d28187611df7565b905081810360a08301526121e68186611df7565b90506121f560c0830185611d93565b61220260e0830184611d93565b9998505050505050505050565b60008115159050919050565b6122248161220f565b82525050565b600060e08201905061223f600083018a611d93565b61224c6020830189611da2565b818103604083015261225e8188611df7565b905081810360608301526122728187611df7565b905081810360808301526122868186611df7565b905061229560a0830185611d93565b6122a260c083018461221b565b98975050505050505050565b6000610100820190506122c4600083018b611d93565b6122d1602083018a611da2565b81810360408301526122e38189611df7565b905081810360608301526122f78188611df7565b9050818103608083015261230b8187611df7565b905061231a60a0830186611d93565b61232760c0830185611d93565b61233460e083018461221b565b9998505050505050505050565b60006020820190506123566000830184611d93565b92915050565b7f4f6e6c79204f7267616e697a65722063616e20726567697374657220766f746560008201527f7200000000000000000000000000000000000000000000000000000000000000602082015250565b60006123b8602183611dbc565b91506123c38261235c565b604082019050919050565b600060208201905081810360008301526123e7816123ab565b9050919050565b7f4e487b7100000000000000000000000000000000000000000000000000000000600052602260045260246000fd5b6000600282049050600182168061243557607f821691505b602082108103612448576124476123ee565b5b50919050565b60008190508160005260206000209050919050565b60006020601f8301049050919050565b600082821b905092915050565b6000600883026124b07fffffffffffffffffffffffffffffffffffffffffffffffffffffffffffffffff82612473565b6124ba8683612473565b95508019841693508086168417925050509392505050565b6000819050919050565b60006124f76124f26124ed84611d89565b6124d2565b611d89565b9050919050565b6000819050919050565b612511836124dc565b61252561251d826124fe565b848454612480565b825550505050565b600090565b61253a61252d565b612545818484612508565b505050565b5b818110156125695761255e600082612532565b60018101905061254b565b5050565b601f8211156125ae5761257f8161244e565b61258884612463565b81016020851015612597578190505b6125ab6125a385612463565b83018261254a565b50505b505050565b600082821c905092915050565b60006125d1600019846008026125b3565b1980831691505092915050565b60006125ea83836125c0565b9150826002028217905092915050565b61260382611db1565b67ffffffffffffffff81111561261c5761261b611b76565b5b612626825461241d565b61263182828561256d565b600060209050601f8311600181146126645760008415612652578287015190505b61265c85826125de565b8655506126c4565b601f1984166126728661244e565b60005b8281101561269a57848901518255600182019150602085019450602081019050612675565b868310156126b757848901516126b3601f8916826125c0565b8355505b6001600288020188555050505b505050505050565b7f596f75206861766520616c726561647920766f74656400000000000000000000600082015250565b6000612702601683611dbc565b915061270d826126cc565b602082019050919050565b60006020820190508181036000830152612731816126f5565b9050919050565b7f596f752068617665206e6f20726967687420746f20766f746500000000000000600082015250565b600061276e601983611dbc565b915061277982612738565b602082019050919050565b6000602082019050818103600083015261279d81612761565b9050919050565b7f4e487b7100000000000000000000000000000000000000000000000000000000600052601160045260246000fd5b60006127de82611d89565b91506127e983611d89565b9250828201905080821115612801576128006127a4565b5b92915050565b7f4f6e6c79204f7267616e697a65722063616e2072657365742077696e6e657200600082015250565b600061283d601f83611dbc565b915061284882612807565b602082019050919050565b6000602082019050818103600083015261286c81612830565b9050919050565b7f4f6e6c7920766f74696e67204f7267616e697a65722063616e2073657420436160008201527f6e64696461746500000000000000000000000000000000000000000000000000602082015250565b60006128cf602783611dbc565b91506128da82612873565b604082019050919050565b600060208201905081810360008301526128fe816128c2565b9050919050565b7f43616e64696461746520646561646c696e652073686f756c6420626520696e2060008201527f7468652066757475726500000000000000000000000000000000000000000000602082015250565b6000612961602a83611dbc565b915061296c82612905565b604082019050919050565b6000602082019050818103600083015261299081612954565b905091905056fea2646970667358221220dd4b783e2d72a17ee88334f0f2dfc3ea27ade3f73ba4ac1f8845acf2237b00ae64736f6c63430008130033",
  "linkReferences": {},
  "deployedLinkReferences": {}
}